:02000002D0002C
:1040000000400D00147E0D00000006000C000501AC
:084010000401BD0B00000000DB
:044018008C740D0097
:10401C0009480A49884208B505D0094A824202D0AB
:10402C00121A03F049F90748074A0021121A03F043
:10403C0051F9014808BD00BF18E50320847D0D002F
:10404C0080E5032080E50320F0E7032070B5074EE0
:10405C00074C02F0EDF8A41BA4080025A54200D1E2
:10406C0070BD56F8043B98470135F7E7587D0D00B5
:10407C007C7D0D0000F01CBC08B500F00DFDBDE80A
:10408C00084002F097B801F01DBE01F01BBE01F014
:10409C0021BE01F01FBE0078B0FA80F040097047D5
:1040AC00012303707047704737B5044608460191E9
:1040BC0003F046F96368A268451CE818904208D8DA
:1040CC00206801992A46184403F0F6F860682844E1
:1040DC00606003B030BD000038B584690A4B0360E2
:1040EC0005467CB16368013B63605BB9236820467D
:1040FC009B689847A368013BA3601BB923682046C3
:10410C00DB689847284638BDA47A0D0008B501F045
:10411C00D5FB034B1860BDE8084001F0BBBD00BFE8
:10412C00D4E7032003682BB14268934202D21846AD
:10413C0003F0ACB80020704738B50568044645B1AB
:10414C0043689D4205D2284603F0FAF80130054435
:10415C002560204638BD000038B504460B46D0E932
:10416C0001012568044A091A284401F0C3FD63685B
:10417C0001300344636038BDA0740D0038B50446AB
:10418C000B46D0E901012568044A091A284401F0BC
:10419C00B1FD636801300344636038BDA3740D0046
:1041AC001FB50968684601F0CEFE009A044905481F
:1041BC0001F039F9684601F07BFE05B05DF804FBAF
:1041CC00A7740D00E0E5032008B5002343770068D1
:1041DC0002F07EFCBDE8084001F0FABA2DE9F0438C
:1041EC0001EB02098FB04945CDE9051980460D4612
:1041FC00164680F0928005A80F88FFF79DFF036894
:10420C00994540F28A8005A8FFF78CFF47F2762388
:10421C009F42C4B200F0A98027D847F261239F4285
:10422C007ED047F264239F4242D046F670539F42A1
:10423C0028D1634E634FDFF8A081059B99456CD95B
:10424C0005A8FFF76FFFC4B205A8FFF775FF059D22
:10425C003146284603F06AF80146E0B9204602F0E0
:10426C003FFE05A8FFF768FFE7E747F264739F423C
:10427C003FD047F276739F4200F0878047F261731C
:10428C009F425FD00023CDE9013302220092B8F89F
:10429C001A20194629E03946284603F047F828B178
:1042AC004146284603F042F80028DAD10121D5E72F
:1042BC000AAB4549079307A810230025CDE90853FD
:1042CC00FFF7F2FE07A82146FFF746FF204602F053
:1042DC0031FE014607A8FFF751FF089BCDE90155B8
:1042EC00013B0093079B2A461421404600F014FB27
:1042FC0013E005A8FFF720FF036899450DD9A4B278
:10430C000121204602F0ECFD05A8FFF70BFF011E72
:10431C0018BF0121204602F0F4FD0FB0BDE8F08378
:10432C000AAB079307A8102328490025CDE90853A9
:10433C00FFF7BAFE07A82146FFF70EFF204602F052
:10434C000CFEC6E705A8FFF7F7FE03689945E4D90C
:10435C00A4B20121204602F0C3FD05A8FFF7E2FE3E
:10436C000146204602F010FED7E720468DF8284083
:10437C0001F030FA03460AA823B1154A934201D042
:10438C009847CAE701F022FAC7E705A8FFF7D4FE61
:10439C00059B8DF81C405D1B751B2046CDE90A352D
:1043AC000C9501F021FA03460AA907A823B1094A82
:1043BC00934201D09847B0E701F009FAADE700BF8E
:1043CC00AD740D00B0740D00B8740D00BB740D000D
:1043DC00D9570D00DB570D00B4740D002DE9F041D9
:1043EC008CB004AF044605220068391D01F07EFE36
:1043FC00B8B3052804D000202037BD46BDE8F081B5
:10440C00B7F80520130A43EA0223B7F80720A7F8E8
:10441C00053099B2130A43EA02231FFA83F8A7F86E
:10442C0007300029E7D03B7923BB01F0CDF90246D8
:10443C00E060607FB7F80730C0B9B7F80510012904
:10444C0014D1092B0FD0C82B01D0042BD4D10125AA
:10445C0062612046657700F00DFBFFF757FE01F017
:10446C00B7F90120C8E703236377C5E7581F18BFC6
:10447C000120C1E7B8F5806F03D92046FFF7A4FEF1
:10448C00EFE708F1080323F007036E46ADEB030DCD
:10449C0004AD20684246294601F028FE80454FF0C5
:1044AC0000007FD1B7F80730E85401F08DF93B7963
:1044BC00E060142B00F0A68048D80F2B00F0A280EF
:1044CC0007D8022B48D0062B51D02046FFF77CFE94
:1044DC0058E0112BF9D100233B70B7F807302B446F
:1044EC009D42C7E903534DD207F10C00D5F800806B
:1044FC00FFF722FEFB68B7F807105D1B4D1BC7E9E1
:10450C0005357B68FD61C3F30F236383644B9845CA
:10451C0000F0BF8000F28C80A3F57F236FF4007253
:10452C001344984500F09D8079D8A3F50033063BE1
:10453C00984500F09C8003F50033033398456BD10C
:10454C0007F11401384601F042F965E0292B1BD024
:10455C00372B17D01D2BB8D1637F43B90123637759
:10456C00204600F087FAFFF7D1FD01F031F9002366
:10457C00C821B7F805200091CDE901331946204632
:10458C0000F0CAF901200DE0A3681BB9402001F02E
:10459C0099FBA060B7F80780A8444545C7E90558C2
:1045AC0002D30020B54627E729464022A06802F036
:1045BC00CFFEA368002583F83F5007F11400FFF7E6
:1045CC00BBFD036843451BD2786920B1BB69984297
:1045DC0014D202F05FFE85B2206802F079FA2368EB
:1045EC00A2685A631D870023637701F0EDF8A0F5EC
:1045FC009C500838C4E903006061C3E72846EAE729
:10460C005025E9E77B68B7F80720C3F30F236383D2
:10461C0029462046FFF7E2FD00236383B2E7214BD6
:10462C009845F9D107F11401384601F0D0F8F3E7B9
:10463C001D4B984521D003F19F6303F5003303F51F
:10464C00807398451FD003F16E4303F5302303F5B7
:10465C0086739845E0D107F11401384601F0B7F89C
:10466C00DAE707F11401384601F0B1F8D4E707F1A5
:10467C001401384601F0ABF8CEE707F114013846C7
:10468C0001F0A5F8C8E707F11401384601F09FF8CE
:10469C00C2E707F11401384601F099F8BCE700BFF6
:1046AC00766673006462670061636F6E2DE9F0419A
:1046BC0004468CB00D46FFF729FD637F022B00F0FA
:1046CC00A880237F628B0133DBB223770AB10125EB
:1046DC0016E0022BFBD8206802F018F8B8B125B907
:1046EC00206802F09BF9002811DD2046FFF776FECA
:1046FC0005460028F4D1206802F0EAF901F068F8C8
:10470C00237F013B237728460CB0BDE8F08101F0F4
:10471C005BF80646206801F0F9FF677F012F05461C
:10472C0029D120B966612046FFF74EFDE8E7E36822
:10473C004FF21862F31A934204D92046FFF744FD56
:10474C000025DDE74AF6C872934203D82369F31AB1
:10475C009342BCD9636941F27072F31A9342B6D991
:10476C000023CDE9013300931A460621204600F0C0
:10477C00D3F86661ABE7002FA9D16269B21A40B1D8
:10478C0041F270739A42A2D9206802F0A1F96777BE
:10479C00D6E741F288339A4299D9206802F098F909
:1047AC00D4F800C0DCF834E0BCF83880BEF1000F5F
:1047BC000BD02B4642467146604602F0E7F9431E89
:1047CC005D425D418DB966619AE7134B06930CF11E
:1047DC0020070FCF07AD0FC53B682B7042467346C1
:1047EC0006A9604602F09FF8E9E763680593012685
:1047FC001846268302F0A4FD0022CDE90122059B78
:10480C00009032461D21204600F086F82369636132
:10481C0076E7002577E700BFD4790D002DE9F0414C
:10482C0015468CB00446043540F6B8300F46984611
:10483C0000F0C8FF0FCD01AE0FC62B683370676058
:10484C0000F0C2FFA0F59C50083801AFC4E903008A
:10485C0060610FCF07AE0FC63B68337007AF0FCF49
:10486C0025684FF0000CC5F834C0A5F83880203509
:10487C000FC533682B70664644F24F67206802F010
:10488C0027F9667700F0A0FF0546637F012B0CD05B
:10489C0000F09AFF401BB84204D800212046FFF7D5
:1048AC0005FFF2E7637F012BE8D10CB0BDE8F08186
:1048BC0010B588B001F0E4FD4FF4165101F0D4FDB1
:1048CC000121072002F00CFBA2230093AC22EA2367
:1048DC00A72102A801F05CFD42F2823302AA0B4927
:1048EC000B480C4CFFF79AFF02F08CFB014620465C
:1048FC0000F0A4FA02F086FB01F0A8FE204600F0BE
:10490C0053FA204600F02DFA08B010BDBE740D000D
:10491C0084E5032040E603202DE9F04F83B000AF7F
:10492C00044600683D6B884616469946EB4601F0F6
:10493C00EDFE00287FD0B8F11D0F04D84C4B23FAA4
:10494C0008F3DB0702D4637F012B74D146B9668B65
:10495C0036B9238B01339BB2002B71D02383268B6A
:10496C00A8F10C03082B16D8D4E90323934238BFC3
:10497C00134603F1420A00F027FFAAEB00000028BF
:10498C0060DB00212046FFF791FE00F01DFFAAEB33
:10499C0000000028F5DAB9F1000F5AD06B1D7A6BC4
:1049AC00002ABA6B08BF002203EB020A0AF10703C4
:1049BC0023F00703ADEB030DBB6BC7F804D0EA186B
:1049CC00C2F3072376BA43EA02238DF80080ADF8D0
:1049DC000160ADF80330B9F1000F3CD0002D3AD096
:1049EC002A4649460DF1050002F066FC681D7B6BFA
:1049FC003BB1BB6B2BB11A467B68796B184402F048
:104A0C005BFC002555452AD2AAEB05027B68206881
:104A1C00B2F5806F28BF4FF48062591901F060FE27
:104A2C000646002000F0CEFEBEB9206802F050F819
:104A3C00667700F0CDFE0C37DD46BD46BDE8F08F45
:104A4C0001238BE7217F0029A5D12046FFF72EFEFD
:104A5C00A1E70523A3E70520C9E73544D2E703D036
:104A6C002046FFF7B1FBE6E700F0AEFE2061E2E77F
:104A7C004500002000B595B004AB002201934923FA
:104A8C0000930292034B1121FFF746FF15B05DF81E
:104A9C0004FB00BF0C750D0000B500218DB029483A
:104AAC00FFF704FE284800F0DDF80A2201466846AC
:104ABC0001F06FFA01F0E4FC009901F0DAFA009AC7
:104ACC002249234800F0AFFC2249214800F04FFE58
:104ADC001D4800F0CAF80A22014604A801F059FA50
:104AEC0001F0CEFC049901F0C4FA049A1A49184852
:104AFC0000F099FC1749164800F039FE144800F0F4
:104B0C0016FB98B11349124800F031FE104800F022
:104B1C00E6FC4FF47A7001F013FB04A801F0C8F91D
:104B2C00684601F0C5F90DB05DF804FB08A801F06A
:104B3C00B9F80899064800F0EBFB08A801F0B8F9A1
:104B4C00E7E700BF84E5032040E60320DF740D0097
:104B5C00E0E50320A7740D00EB740D0073B5194D3F
:104B6C00194E2846002401F0FDFF05F11C0001F050
:104B7C00CBFB32466C632C871449284602F06AFA48
:104B8C00134B2146C3E90054C3E90244C3E904446E
:104B9C009C619C830F4D012001F000F80E4800F041
:104BAC0027F80E4B0E49009440F25B72284600F039
:104BBC00B5F90C493246284602B0BDE8704002F007
:104BCC0049BA00BFA4E5032080E50320E5400D00B1
:104BDC0084E50320E0E5032040E60320B3400D000C
:104BEC00F5740D0081570D000368C9B29B68184716
:104BFC00704710B504466021006801F059FD20682B
:104C0C0001F05EFDB0FA80F0400910BD38B50546E4
:104C1C000C460068602101F04BFD286803682146B2
:104C2C009B6898472868002101F046FD08B10020D8
:104C3C0038BD28680222602101F037FD286803681E
:104C4C001B6998470028F2D0286803685B6998476D
:104C5C000446286803685B699847E4B244EA00207C
:104C6C0080B2E5E70821FFF7D1BF0921FFF7CEBFDE
:104C7C000C21FFF7CBBF70B504460E4600686021CF
:104C8C00154601F015FD2068036831469B6898476E
:104C9C00E9B22068FFF7A8FF290A2068FFF7A4FFF4
:104CAC00206801F00DFDB0FA80F0400970BD70B5C0
:104CBC0004460D461646FFF7A9FF00F47F4040EA74
:104CCC00060229462046BDE87040FFF7D4BF70B5F8
:104CDC0004460D461646FFF799FFC0B240EA06227D
:104CEC0029462046BDE87040FFF7C5BF08B5FFF761
:104CFC008DFFC0F3072008BD2DE9F04104469DF857
:104D0C0018700D46984616466AB1FFF77FFFC0B281
:104D1C0000EA080343EA07022946204636B1BDE8FB
:104D2C00F041FFF7C4BFFFF7E1FFF1E7BDE8F04149
:104D3C00FFF7CDBFB1F5A07F07B50ED29F290ED8D6
:104D4C004F298CBF40230023009301223F230321D2
:104D5C00FFF7D2FF03B05DF804FBC023F4E7802318
:104D6C00F2E707B500210091FE230122FFF7C4FFF3
:104D7C0003B05DF804FB072907B50FD803290FD83A
:104D8C0010D002290CBF0423002300930122F1232D
:104D9C000321FFF7B1FF03B05DF804FB0E23F4E72A
:104DAC000C23F2E70823F0E707B500230093012258
:104DBC00FE230321FFF7A0FF03B05DF804FB07B54A
:104DCC000F298CBF0823002300930022F723032113
:104DDC00FFF792FF03B05DF804FB07B502230093C5
:104DEC000122EF230421FFF787FF03B05DF804FBDA
:104DFC00C72907B516D8B32916D89F2916D88B29D9
:104E0C0016D8772916D8632916D84A2994BF0021B9
:104E1C0001210091F82300220421FFF76DFF03B05C
:104E2C005DF804FB0721F4E70621F2E70521F0E722
:104E3C000421EEE70321ECE70221EAE738B504464A
:104E4C000846216001F002FC2046FFF7D2FE054621
:104E5C0010B90025284638BD2046FFF709FFB0F5EC
:104E6C00C37FF6D12046C821FFF7C2FF2046282178
:104E7C00FFF760FF20460821FFF77DFF1021204639
:104E8C00FFF79DFF2046FFF7A8FF2046FFF78CFF9A
:104E9C00E0E791F85C3010B50446016013B1886D01
:104EAC0000F01CFD204610BD10B5036893F85C2083
:104EBC00044612B1986D00F019FD204610BDF8B5EE
:104ECC001F469DF8243004460D4616462BB101238F
:104EDC0080F85C30583000F0F9FC089B2363002309
:104EEC00636306B1A66425B1294604F1380001F0CC
:104EFC003EF8069B2365079BE069A4F84C70FF2BDA
:104F0C00B8BFFF23A4F8543008B1FFF7C2F8B4F8C7
:104F1C005400FFF7BAF8E061F8BD00002DE9FF413D
:104F2C0004460025174698460E4601F01BFE0D4917
:104F3C00E56104F1380001F006F89DF82830A5640D
:104F4C00CDE90283FF220F23CDE90032204684F8FD
:104F5C005C503B462A463146FFF7B1FF204604B071
:104F6C00BDE8F081DE740D0010B50446204601F05A
:104F7C0055FD0028FAD0204601F089FCC0B210BDC6
:104F8C002DE9F0470546C4690F46FFF7EDFF207089
:104F9C00EB6993F800A04FF001090AF0F00A4FF00A
:104FAC0000084C462846FFF7DFFF2646EB6998556C
:104FBC0000F07F0313FB09F3984401340306A4B2F9
:104FCC001FFA88F84FEAC919ECD4631EBAF1300FF6
:104FDC003B7024D12846EF69FFF7C6FF38552846A9
:104FEC00EF69F41CFFF7C0FF0236B6B2A4B2B85595
:104FFC000226B6B2B1462746C14512D22846FFF763
:10500C00B3FFB5F85430BB4288BFEB6909F1010915
:10501C0088BFD8550137BFB21FFA89F9ECE70026D3
:10502C00E7E7A8EB0600B0452CBF06460026344443
:10503C00B5F85400A4B2A0422CBF20460020BDE815
:10504C00F087F7B58C461E461D4607460023AE4634
:10505C0002A805F07F01BEF17F0F03F101040344A8
:10506C0088BF41F08001BEF17F0F4FEAD515E4B245
:10507C0003F8041C10D8C4F10403D11802F803C0BF
:10508C00C4F10503134401A80532934206D010F86D
:10509C00015B03F8015BF8E72346D8E7721C224456
:1050AC00384601F01DFB054600F008FC621C7862D6
:1050BC003244A8B2131A5842584103B0F0BD13B58C
:1050CC000446014601A8FFF7E4FEE369E0221A70EA
:1050DC00E36900225A70E1690222204601F000FBCC
:1050EC00204601F0F5FC00F0E9FBC4E9090001A839
:1050FC00FFF7DAFE02B010BD0233F0B5044698B2E9
:10510C000023CD5C55B1B4F85460864203F101071D
:10511C0004D9461C15543B46B0B2F2E799B2441A76
:10512C002244091202F8021C02F8013CF0BD38B509
:10513C00044601F0EBFA002814BF0125002502D12A
:10514C00204601F0C5FC284638BD00002DE9F0478B
:10515C0088B00446DDF840809DF850A0894617467B
:10516C001E46FFF7E4FF0546002840F0CB802146A1
:10517C0001A8FFF78EFEA16C002940F08780B4F8DF
:10518C004C20A16B2B46204601F000FD002879D065
:10519C00012323849DF85430E269042B40F0818074
:1051AC00594B186899889B79ADF80C108DF80E3016
:1051BC000290C2F805009DF80E30BDF80C10A2F854
:1051CC000910D3720C23B8F1000F7FD09DF8480062
:1051DC009DF84420400140EAC20040F00600C0B2F5
:1051EC00BAF1000F01D100F0FD001FB1002E6FD1FC
:1051FC0040F08000E269D054226DE169581C121213
:10520C000A549A1CE169206D88540333E2694946BB
:10521C002046FFF771FF0346B8F1000F0BD0E2698F
:10522C0041462046FFF768FFE26913990346204682
:10523C00FFF762FF034667B1E26939462046FFF784
:10524C005BFF03462EB1E26931462046FFF754FF5F
:10525C000346053BE2699BB210212046FFF7F1FEA5
:10526C0000F02CFBC4E909004FF47A76204601F0DB
:10527C00D5FB80BB00F022FBA36AC01A236D7343DD
:10528C009842F3D9204601F023FC34E002A801F047
:10529C008BF8B4F84C202B4602A9204601F043FBB6
:1052AC0074E71A4B186859681B7A0DF1080CACE8B6
:1052BC0003008CF8003002AB03CBC2F80500C2F837
:1052CC0009109CF8003053730E237CE7022087E70B
:1052DC0040F0C0008EE702A92046FFF751FE0428DB
:1052EC00D0D1E369DE78002ECCD100F0E7FA0125AD
:1052FC00A06284F82C6001A8FFF7D6FD284608B000
:10530C00BDE8F0870025F9E757750D005E750D00B7
:10531C007FB501230422CDE904320023CDE9023309
:10532C00CDE900331A46FFF711FF07B05DF804FB17
:10533C002DE9F74FDDF83C809DF834509DF83890FE
:10534C0004468B4616461F46FFF7F1FE82460028A0
:10535C0051D0214601A8FFF79CFDB4F85420E06918
:10536C00002101F0B7FF0523E26959462046FFF7FB
:10537C00C3FE6B1E012B15D8218CE369013189B258
:10538C00218409121954421CE369218C92B2023017
:10539C00995480B2B8F1000F04D0238C5A1C22848B
:1053AC00A8F8003000210B188F42E2699BB20AD991
:1053BC00B4F854C09C4506D916F801C002F803C0D5
:1053CC00013189B2EFE79DF8301000290CBF302174
:1053DC003121B9F1000F01D041F00801022D0ED19D
:1053EC0041F00401053B9BB22046FFF72AFE8246A2
:1053FC0001A8FFF759FD504603B0BDE8F08F012D11
:10540C0008BF41F00201EDE71FB5089C039400248E
:10541C0002949DF81C4001949DF818400094FFF7ED
:10542C0087FF04B010BD30B587B004461046059117
:10543C00049201F085FF00250346CDE90155DDE915
:10544C00042100952046FFF7DFFF07B030BD73B590
:10545C0004460E46FFF76BFE0546C8B1214601A86F
:10546C00FFF717FDE36962221A70E36902225A7092
:10547C00E36932129A70E369DE70E1690422204616
:10548C0001F02EF9051E01A818BF0125FFF70CFD30
:10549C00284602B070BD73B504460E46FFF747FEB2
:1054AC000546C8B1214601A8FFF7F3FCE369722257
:1054BC001A70E36902225A70E36932129A70E36936
:1054CC00DE70E1690422204601F00AF9051E01A8EC
:1054DC0018BF0125FFF7E8FC284602B070BD2DE986
:1054EC00F04F2DED028B87B000AF0446FFF71FFE87
:1054FC008146F8B1214607F11400FFF7CAFC00F011
:10550C00DDF9226D4FF47A735343A26A821A9A42E0
:10551C00064603D8626A821A934221D294F82C3040
:10552C007BB1204601F0D4FA4FF0000907F11400CA
:10553C00FFF7BAFC48461C37BD46BDEC028BBDE8F4
:10554C00F08FE269C0211170E2695370E1690222A7
:10555C00204601F0C5F8C4E90966012384F82C3013
:10556C00204601F05BFA0028E0D007F11301204639
:10557C00FFF706FD83460028D8D0E369A6621978A8
:10558C0001F0F002302A7FD1D4F830A0BAF1000F2C
:10559C00CCD097F813C06A4608EE102A03EB0C0225
:1055AC005578917801EB05218DB205F10802694619
:1055BC00D208A1EBC20295460CF10302FA6003EB90
:1055CC00020E0DEB05026846C7F808D07A60D7E9E1
:1055DC0001218A4206D00A461EF8018B02F8018B83
:1055EC00BA60F4E70022425593F80080F96808F09D
:1055FC000608ABEB0C02033AB8F1020FA2EB050262
:10560C00294425D113F801E01944023A91F801B06C
:10561C000CF10501294419440BEB0E2BD047E3691F
:10562C0040221A70E3691FFA8BFB83F80180E3694F
:10563C004FEA2B229A70E36983F803B0E1690422E4
:10564C00204601F04DF8666218EE103A9D466DE763
:10565C00B8F1040F15D113F801E01944023A91F88E
:10566C0001B00CF10501294419440BEB0E2BD0476A
:10567C00E36950221A70E36902221FFA8BFB5A70FD
:10568C00D5E71944D047DFE7502A08D19A78D97862
:10569C0001EB022189B22046FFF7D9FE46E7402AEA
:1056AC0012D1626B002A3FF441AFBBF1040F7FF4BF
:1056BC003DAF11F0060F7FF439AF9978D87800EB35
:1056CC00012080B2904731E7602A08D19A78D978C6
:1056DC0001EB022189B22046FFF7DDFE26E7702A96
:1056EC00DFD0902A3FF422AFC02A0AD1D0221A7000
:1056FC00E36900225A70E1690222204600F0F0FFB3
:10570C0014E7D02A04BF002384F82C300EE7F7B539
:10571C0004460F461646FFF70AFD054610B3214610
:10572C0001A8FFF7B6FB238C01339BB2EBB12384AA
:10573C00238CE2691B125371E369228C9A71E26922
:10574C00072339462046FFF7D7FCE3691E5404387B
:10575C0083B2E26982212046FFF773FC054601A85B
:10576C00FFF7A2FB284603B0F0BD0123DFE70022C0
:10577C00FFF7CDBF38B50546FFF7D9FC10B1284669
:10578C00FFF79DFCE86908B1FEF783FC05F13800D2
:10579C0000F08EFBAC690A4B2B607CB16368013B5B
:1057AC0063605BB9236820469B689847A368013BFC
:1057BC00A3601BB923682046DB689847284638BD90
:1057CC00A47A0D0000F0BCBC00F078B870477047AC
:1057DC007047000003065ABF024B53F8200000200C
:1057EC00704700BF68750D0003065ABF024B53F893
:1057FC0020000020704700BF68770D0008B5024BF1
:10580C001B689B68019308BD6802030008B5024B36
:10581C001B68DB68019308BD6802030008B5024BE6
:10582C001B685B68019308BD2C02030008B5024B92
:10583C001B689B68019308BD2C02030008B5024B42
:10584C001B68DB68019308BD2C02030008B5024BF2
:10585C001B681B69019308BD2C02030008B5024BA1
:10586C001B685B69019308BD2C02030008B5024B51
:10587C001B689B6A019308BD2C02030008B5024B00
:10588C001B681B6B019308BD2C02030008B5024B6F
:10589C001B689B6F019308BD2C02030008B5024BDB
:1058AC001B685B69019308BD6C02030008B5024BD1
:1058BC001B685B68019308BD1802030008B5024B16
:1058CC001B685B69019308BD1802030008B5024B05
:1058DC001B681B6B019308BD4802030008B5024B03
:1058EC001B689B6B019308BD4802030008B5024B73
:1058FC001B681B6C019308BD4802030008B5024BE2
:10590C001B685B6C019308BD4802030008B5024B91
:10591C001B689B6C019308BD4802030008B5024B41
:10592C001B685B69019308BD6402030008B5024B58
:10593C001B681B6A019308BD6402030008B5024B87
:10594C001B689B6A019308BD6402030008B5024BF7
:10595C001B681B68019308BD3C02030008B5024B91
:10596C001B68DB68019308BD3C02030008B5024BC1
:10597C001B681B69019308BD3C02030008B5024B70
:10598C001B685B69019308BD3C02030008B5024B20
:10599C001B689B69019308BD3C02030008B5024BD0
:1059AC001B68DB69019308BD3C02030008B5024B80
:1059BC001B681B6A019308BD3C02030008B5024B2F
:1059CC001B689B6A019308BD3C02030008B5024B9F
:1059DC001B68DB68019308BD2802030008B5024B65
:1059EC001B689B69019308BD2802030008B5024B94
:1059FC001B68DB69019308BD2802030008B5024B44
:105A0C001B681B6A019308BD2802030008B5024BF2
:105A1C001B685B6A019308BD2802030008B5024BA2
:105A2C001B689B6A019308BD2802030008B5024B52
:105A3C001B68DB6A019308BD2802030008B5024B02
:105A4C001B681B6B019308BD2802030008B5024BB1
:105A5C001B685B6B019308BD2802030008B5024B61
:105A6C001B681B6C019308BD2802030008B5024B90
:105A7C001B681B6D019308BD2802030008B5024B7F
:105A8C001B689B69019308BD3802030008B5024BE3
:105A9C001B68DB69019308BD3802030008B5024B93
:105AAC001B681B6A019308BD3802030008B5024B42
:105ABC001B689B6A019308BD3802030008B5024BB2
:105ACC001B681B6B019308BD3802030008B5024B21
:105ADC001B689B6B019308BD3802030008B5024B91
:105AEC001B68DB69019308BD3002030008B5024B4B
:105AFC001B681B6A019308BD3002030008B5024BFA
:105B0C001B681B68019308BD4C02030008B5024BCF
:105B1C001B685B68019308BD4C02030008B5024B7F
:105B2C001B681B69019308BD4C02030008B5024BAE
:105B3C001B685B69019308BD4C02030008B5024B5E
:105B4C001B689B69019308BD4C02030008B5024B0E
:105B5C001B68DB69019308BD4C02030008B5024BBE
:105B6C001B681B6A019308BD4C02030008B5024B6D
:105B7C001B681B6D019308BD6002030008B5024B46
:105B8C001B685B68019308BD2002030008B5024B3B
:105B9C001B685B69019308BD2002030008B5024B2A
:105BAC001B68DB6A019308BD2002030008B5034B98
:105BBC001B68D3F88830019308BD00002002030055
:105BCC0008B5034B1B68D3F89430019308BD000053
:105BDC002002030008B5024B1B685B68019308BDEB
:105BEC004002030008B5024B1B689B68019308BD7B
:105BFC004002030008B5024B1B68DB68019308BD2B
:105C0C004002030008B5024B1B681B69019308BDD9
:105C1C004002030008B5024B1B685B69019308BD89
:105C2C004002030008B5024B1B689B69019308BD39
:105C3C004002030008B5024B1B68DB69019308BDE9
:105C4C004002030008B5024B1B681B6A019308BD98
:105C5C004002030008B5024B1B681B6B019308BD87
:105C6C004002030008B5024B1B685B6B019308BD37
:105C7C004002030008B5024B1B681B6C019308BD66
:105C8C004002030008B5024B1B685B6C019308BD16
:105C9C004002030008B5024B1B689B68019308BDCA
:105CAC004402030008B5024B1B68DB69019308BD75
:105CBC004402030008B5024B1B68DB6B019308BD63
:105CCC004402030008B5024B1B681B68019308BD16
:105CDC001C02030008B5024B1B685B68019308BDEE
:105CEC001C02030008B5024B1B689B68019308BD9E
:105CFC001C02030008B5024B1B68DB69019308BD4D
:105D0C001C02030008B5024B1B68DB6B019308BD3A
:105D1C001C02030008B5024B1B685B6C019308BDA9
:105D2C001C020300002240681146FFF78BBF0022C3
:105D3C0040681146FFF796BF40680022FFF78ABF04
:105D4C004068002281F00101FFF774BF0023406816
:105D5C001A461946FFF766BF002340681A461946D3
:105D6C00FFF758BF002240681146FFF74BBF0022D7
:105D7C0040681146FFF736BF406800220221FFF74A
:105D8C0039BF002340681A46FFF724BF024B032299
:105D9C005A60024A1A60704750E6032070790D0071
:105DAC0010B5044608462170FFF798FE0023636087
:105DBC00204610BD10B50446006818B1FFF78AFFE5
:105DCC000023236010BD10B50446FFF7F3FF2046F7
:105DDC0010BD000010B5094B094C022200201A60BE
:105DEC00084B2060A080A071A360FFF7C7FE20467F
:105DFC00054A0649BDE8104001F02CB964E60320C1
:105E0C0058E603200000FFFF80E50320D35D0D0062
:105E1C0010B5044601F094FA013823182046834249
:105E2C0006D90278197800F8011B03F80129F6E766
:105E3C0010BD70B50C46911E2229054622D820466D
:105E4C006DB1B5FBF2F602FB1655E9B2092D94BF04
:105E5C0030315731C9B200F8011B3546F0E7024624
:105E6C0023443021934202D902F8011BFAE71A1A93
:105E7C00834238BF0022002383542046FFF7C8FF1B
:105E8C00204670BD0020FCE708B50123FFF7D1FFC9
:105E9C0008BD70B586B0064601AD684600F084FAC0
:105EAC000FCD341D0FC42B682370304606B070BD67
:105EBC0010B504460068FFF70DFF204610BD10B565
:105ECC000446006808B1FFF705FF0023C4E901335D
:105EDC00236010BD38B504460D4600680131FFF74C
:105EEC0001FF10B1C4E90005012038BD10B50368ED
:105EFC00044623B143688B4201D3012010BD2046D8
:105F0C00FFF7E8FF0028F9D0A368002BF5D1226831
:105F1C001370F2E737B50D46114601920446FFF7B0
:105F2C00E5FF019A28B92046FFF7C9FF204603B0C8
:105F3C0030BDA2602946206801F0BEF92268A36832
:105F4C000021D154F2E7002313B5C0E90033044615
:105F5C008360037341B10846019101F0F1F9019995
:105F6C0002462046FFF7D6FF204602B010BD13B5FF
:105F7C00044659B10846019101F0E2F90199024633
:105F8C002046FFF7C7FF204602B010BDFFF797FF72
:105F9C00F9E710B504468AB00023C4E90033A360C6
:105FAC002373084601A9FFF76FFF01A92046FFF7ED
:105FBC00DEFF20460AB010BD10B50446006808B1DB
:105FCC00FFF7A4FC204610BD10B58368044613B13E
:105FDC00032201469847204610BD000010B5064C20
:105FEC00002320462360FFF789FC2046034A04491E
:105FFC00BDE8104001F02EB868E6032080E50320D0
:10600C00C55F0D00F8B506460D468F180024BD423D
:10601C000CD0336815F8011B9B6830469847031E5B
:10602C0001DB1C44F3E7002C08BF1C462046F8BDDE
:10603C0013B50446084659B1019101F081F9236862
:10604C000199DB680246204602B0BDE810401847B3
:10605C0002B010BD03689B68184738B50D21054682
:10606C00FFF7F8FF0A2104462846FFF7F3FF204408
:10607C0038BD38B50546FFF7DBFF04462846FFF769
:10608C00ECFF204438BD30B58BB000238DF82430A4
:10609C00012A98BF0A2209AC0D46B1FBF2F101FBB3
:1060AC00125303F0FF03092B94BF30333733DBB2A9
:1060BC00AA4204F8013DEFD92146FFF7B9FF0BB016
:1060CC0030BD10B50446FFF7F9FBE06023682046AD
:1060DC005B699847002808DAFFF7F0FBE368C01A01
:1060EC00A3689842F2D34FF0FF3010BDF8B50646C6
:1060FC000D4617460024BC4207D03046FFF7E1FF9F
:10610C00031E02DB2B550134F5E72046F8BD0023B6
:10611C0040681A461946FFF77DBD0000014B024A44
:10612C001A6070476CE60320AC790D00024B1A68BC
:10613C00024B1A60704700BF18E5032070E603207D
:10614C000021FFF723BD10B50446FFF73DFF2046A5
:10615C0010BD00000348044A04490023836000F08A
:10616C0079BF00BF74E6032080E5032053610D0066
:10617C00014B1860704700BF1CE5032008B50B4BA2
:10618C0043B100F07DF903681B699847002801DDD5
:10619C00AFF30080064B43B100F0F0F903681B69C4
:1061AC009847002801DDAFF3008008BD0000000017
:1061BC000000000008B5FFF7E1FFFFF77FFB014B84
:1061CC00186008BDD4E703200248034A0349121A99
:1061DC0001F072B800F4032004F40320807D0D005C
:1061EC0007B5002300931A466FF07701FFF7E8FC20
:1061FC0003B05DF804FB000007B543880A2B08D0F8
:10620C00502B0BD1094B1B684BB103B05DF804EB61
:10621C001847FFF7E5FF03B05DF804FB002300937C
:10622C001A466FF07701FFF7CBFCF4E788E6032002
:10623C0038B5124C1248134D0021FFF76BFD236843
:10624C00AB42114B0CBF012200221A7002D0FFF797
:10625C00BBFF2560FFF72AFB044601F043F80B4B0C
:10626C0013B12046AFF3008000210848FFF722FD50
:10627C00BDE8384006480021FFF798BC00F4032025
:10628C007D610D001E1C279A84E60320000000008F
:10629C0005620D00704710B51821044600F0DFFEB2
:1062AC00204610BDF0B5037D062B8DB00E4600F1D7
:1062BC0004074FF0000412D000F1080515F8011D79
:1062CC000A223046FFF7DFFEAF42044419D0002CFF
:1062DC00F4D02E213046FFF7BDFE0444EEE72F2309
:1062EC006A4639460A208DF80040FFF717FB6846CE
:1062FC0001F026F833680246DB6869463046984759
:10630C00044620460DB0F0BD10B5054B04461122D5
:10631C0040F8043B002100F0DDFF204610BD00BF1B
:10632C00D4790D000346074A10B543F8042B01F14C
:10633C00100251F8044B43F8044B9142F9D10A78FE
:10634C001A7010BDD4790D00037D042B04D1406864
:10635C00003818BF01207047062B07D143683BB9A2
:10636C0083682BB9C3681BB90069F1E7002070473B
:10637C000120704710B59DF8084044EA032343EA16
:10638C00024242EA016104234160037510BD000022
:10639C0037B5044D05609DF818500095FFF7EAFFDE
:1063AC0003B030BDD4790D0013B5054B0360CB7829
:1063BC0000938B784A780978FFF7DCFF02B010BDA8
:1063CC00D4790D0041747047704708B50021007CEA
:1063DC00FFF7B4FB40EAE07008BD08B50121007C72
:1063EC00FFF7ACFB40EAE07008BD08B5007CFFF796
:1063FC009DFB20EAE07008BD08B5007CFFF78EFB22
:10640C0020EAE07008BD13B50446007C0191FFF74B
:10641C008DFB0028019901DC607C20B1207CFFF70A
:10642C0095FB20EAE07002B010BD007CFFF796BB34
:10643C0010B51421044600F012FE204610BD0000D9
:10644C0010B54FF47A73044608460021C4E90113D1
:10645C00044B23600123207463741146FFF74EFB39
:10646C00204610BDE8790D00007C0022FFF74EBBE2
:10647C0010B514220446002100F02CFF204610BD5C
:10648C0010B5104C88B003A8FFF7F2FF2178BFF3CA
:10649C005B8F11F0010111D120460191FDF7FBFD3D
:1064AC00019958B103AA0848FFF7CAFF2046FDF727
:1064BC00F7FD064A0649044800F0CCFD024808B036
:1064CC0010BD00BF8CE6032090E6032080E503207E
:1064DC00D5630D0070474174704708B5007CFFF719
:1064EC006DFA20EAE07008BD08B5007CFFF73EFAB3
:1064FC0020EAE07008BD08B5007CFFF747FA40EAD7
:10650C00E07008BD08B5007CFFF738FA40EAE0708F
:10651C0008BD007CFFF742BA37B5457C04462DB167
:10652C00207C03B0BDE83040FFF718BA007C019125
:10653C00FFF744FA00280199F2DC284603B030BD7D
:10654C0010B51421044600F08AFD204610BD000051
:10655C0010B54FF0000C0446084611464FF47A7201
:10656C00C4E901C2044A22600122207462741A46F2
:10657C00FFF7ECF9204610BD187A0D0013B50E4C40
:10658C002178BFF35B8F11F0010112D120460191EC
:10659C00FDF781FD019960B1084A094B0948FFF7E5
:1065AC00D7FF2046FDF77CFD074A0849054800F057
:1065BC0051FD044802B010BDA4E60320A8E6032058
:1065CC002CE70320B0E7032080E50320E1640D00F5
:1065DC007047F8B5064615460C468F18BC4206D0D7
:1065EC00336814F8011B9B6830469847F6E7284639
:1065FC00F8BD007C0022FFF701BA007C0021FFF7F8
:10660C0005BA007C0021FFF709BA007C0021FFF7D6
:10661C000DBA007C0021FFF711BA10B51421044605
:10662C0000F01DFD204610BD10B54FF47A730446E2
:10663C0008460021C4E90113034B23602074114662
:10664C00FFF70CFA204610BD487A0D000023007CA1
:10665C001A461946FFF7BAB97FB500221423CDE9C3
:10666C000122ADF804300B788DF808304B68039399
:10667C00CB680493007C0B7A059301A9FFF7F6F91C
:10668C0007B05DF804FB1FB5003B8DF800104FF010
:10669C006401039118BF0123694601928DF80830FB
:1066AC00FFF7DAFF05B05DF804FB0123FFF7EBBF42
:1066BC00007C0022FFF792B9007C0022FFF796B90C
:1066CC000121FFF7F9BF13B503688DF80710DC6BD8
:1066DC0001224FF0FF330DF10701A04702B010BDAE
:1066EC0010B40368DC6B4FF0FF33A4465DF8044B29
:1066FC00604713B5134602688DF80710D46B0DF183
:10670C0007010122A04702B010BD704738B543699C
:10671C001A68002A054610DAB3F88620B3F88430DC
:10672C009A420AD103681B699847044628B92B681A
:10673C002846DB6A9847204638BD0120FCE74369B0
:10674C001868C043C00F704770470000064B994251
:10675C0010B500F10C0405D0084600F085FC0028AB
:10676C0008BF0024204610BDA4790D0010B5AC2143
:10677C00044600F074FC204610BDFDF788BC2DE9E2
:10678C00F0414FF0000886B01D46C0F80480044666
:10679C000E4617464146102202A800F09BFD6B1CCA
:1067AC0009D04FF47A70B5FBF0F3CDE9023800FB59
:1067BC00135358430490606910230093006802AB94
:1067CC0041F2050240F6FF71FFF758F9002807DA8D
:1067DC00FFF798FA03686360002006B0BDE8F0810B
:1067EC006069002300683A463146FFF767F9031EDB
:1067FC00EEDB1846F1E7000038B584690A4B0360FC
:10680C0005467CB16368013B63605BB92368204635
:10681C009B689847A368013BA3601BB9236820467B
:10682C00DB689847284638BDA47A0D0010B504469D
:10683C00FFF7E2FF20461C2100F011FC204610BDA2
:10684C0070B54D69054B04468C3544F8043B06463F
:10685C000FCD0FC42B682370304670BDD4790D005A
:10686C0010B54369B3F88620B3F884309A420446D5
:10687C0005D06369B3F884201344187910BD0368FC
:10688C001B6998470028F4D14FF0FF30F6E710B59C
:10689C004369B3F88620B3F884309A42044608D092
:1068AC006369B3F88420511CA3F88410134418793D
:1068BC0010BD03681B6998470028F1D14FF0FF30D9
:1068CC00F6E7F8B543691746B3F88620B3F8843079
:1068DC009A4205460E4616D06969B1F88430B1F873
:1068EC008640E41ABC4228BF3C4604332246194475
:1068FC00304600F0E1FC6A69B2F884302344A2F817
:10690C0084302046F8BD03681B6998470028E3D102
:10691C004FF0FF34F5E742690023A2F88430426956
:10692C00A2F8863070472DE9F0411F4603680C46EB
:10693C00DB6A8AB0054616469847237DD5F8148045
:10694C00042B0CBF02200A2006220121FFF7BEF8FF
:10695C00C8F800006B691B68002B08DA2B68284606
:10696C00DB6A0024984720460AB0BDE8F08128462F
:10697C00FFF7D1FFB7B1002303A9F8B20393ADF829
:10698C001030FEF78BFF0028E8D1686906230093CE
:10699C00006803AB41F20B0240F6FF71FFF76EF893
:1069AC000028DBD11C22002103A800F093FC237DDE
:1069BC00042B1DD14FF407733046ADF80C30FEF7A5
:1069CC00BDFFADF80E006068FEF7B0FF04906B6978
:1069DC001C22186803A9FFF761F80028BED1043403
:1069EC000FCC6D698C350FC523682B700124BAE769
:1069FC0040F61C233046ADF80C30FEF79FFF05AE79
:106A0C00ADF80E00231D04F11407186859683246BE
:106A1C0003C20833BB421646F7D1D8E730B54269FA
:106A2C00B2F886308BB004462BB1B2F884209A426F
:106A3C0001D1FFF770FF61690868002818DBB1F815
:106A4C0086507F2D14D804310823C5F180022944C7
:106A5C00FFF72CF8002813DD6369B3F886200AB918
:106A6C00A3F884206369B3F886201044A3F8860049
:106A7C006369B3F88600B3F88430C01A0BB030BD2C
:106A8C00FFF740F903680B2BF2D0FFF73BF90368D3
:106A9C000B2BEDD020230025CDE90235FFF732F981
:106AAC0003680193084B0949009302AA2B46322034
:106ABC00FFF75CF863691868FEF7E8FF63694FF04D
:106ACC00FF321A60D4E700BF6F7A0D00687A0D00B0
:106ADC0010B5436904461868002801DBFEF7D6FFA1
:106AEC0063694FF0FF321A606069112200218C300B
:106AFC0000F0F0FB2046BDE81040FFF70CBF10B5CE
:106B0C00002304460160C0F884308830FFF7FCFB9A
:106B1C00204610BD73B500234FF47A72C0E90132E0
:106B2C000E4A0361026043610446AC200191FDF7FB
:106B3C00AAFA051E05F10C0608D00123C5E901339C
:106B4C00074B01992B603046FFF7D9FF2046C4E96B
:106B5C000565FFF7E0FE02B070BD00BFA47A0D0022
:106B6C00887A0D0010B54FF0FF310446FFF7D2FFC5
:106B7C00204610BD10B504460068002801DBFEF766
:106B8C0085FF204610BD0C30FFF7F4BF2DE9F04314
:106B9C009846036893B00D460024DB6A06461746F8
:106BAC00984728466B46224621460094FEF72EFE57
:106BBC000546002863D1009B002B4BD05B69002B52
:106BCC0048D006A8FFF7A0FB009B5C696378022BFA
:106BDC0004D1211D06A8FFF75CF926E00A2B24D16D
:106BEC001122294601A800F075FBA368002B38D0B0
:106BFC0004F108030DF1040C183418685968624646
:106C0C0003C20833A3429446F7D1062301A90CA86A
:106C1C008DF81430FFF786FB0DF1340CBCE80F0037
:106C2C0007AC0FC4DCF80030237006A8FFF78CFB10
:106C3C0080B1336807ADD3F82090124B0C930FCD75
:106C4C000DAC0FC42B6823703A4643460CA9304652
:106C5C00C84705460098FEF7D1FD284613B0BDE89D
:106C6C00F083E368002BC3D14FF6FF70D4F810907B
:106C7C00FEF75CFE8145BBD104F11401AAE7254661
:106C8C00E8E700BFD4790D00002240681146FEF7FA
:106C9C00B9BF002240681146FEF7D4BF00224068FD
:106CAC001146FEF7DFBF40680022FEF7D3BF4068F5
:106CBC00002281F00101FEF7BDBF002340681A4697
:106CCC001946FEF7AFBF002240681146FEF78ABF97
:106CDC00406800220221FEF78DBF002340681A464F
:106CEC00FEF778BF024B04225A60024A1A607047C2
:106CFC00C4E70320F07A0D00002340681A46FEF723
:106D0C0069BF406800220221FEF774BF0022406870
:106D1C001146FEF767BF002240681146FEF772BFAE
:106D2C00002340681A461946FEF774BF00234068DA
:106D3C001A461946FEF776BF40680021FEF79ABF47
:106D4C0040680021FEF79EBF4068002281F00101DF
:106D5C00FEF770BF40680022FEF77CBF002240683F
:106D6C001146FEF77FBF002240681146FEF76ABF4E
:106D7C002DE9F043002495B016460D460746FFF763
:106D8C00C3FA214618220EA8009400F0A3FA40235F
:106D9C00CDE90C3421466B460CAA3046FEF736FD85
:106DAC00044600284CD1024601216868FEF72AFFF0
:106DBC000221804622466868FEF724FF009E814629
:106DCC002146002E3CD000293AD17368022B03D007
:106DDC000A2B11D0F669F4E7B8F1000F0AD07169EB
:106DEC0006A8043107ADFFF7DFFA0FCD3C1D0FC429
:106DFC002B6823704146EDE7B9F1000F01D14946EC
:106E0C00E8E77469102201A800F064FA06238DF8F3
:106E1C00143001AD04F108031834186859682A4677
:106E2C0003C20833A3421546F7D101A906A807AD42
:106E3C00FFF778FA0FCD3C1D0FC42B682370DEE7EB
:106E4C000098FEF7DBFC384615B0BDE8F083000077
:106E5C00024B034A1A6000225A607047CCE70320A9
:106E6C002C7B0D00232813B502D9002002B010BDD5
:106E7C00A0F10B03022B1AD8174C2178BFF35B8FB0
:106E8C0011F001010BD120460191FDF704F9019994
:106E9C0028B11248FEF784FF2046FDF701F90F4B8D
:106EAC001878FEF723FE0028DFD10120DEE7012849
:106EBC0009D800F0A7F80021007CFEF7C7FD80F090
:106ECC000100C0B2D2E709380128EED8FFF756FB13
:106EDC00007CFEF76BFDF2E744E6032048E6032056
:106EEC00232838B504460D460AD8FF2908D0FFF7E9
:106EFC00B9FF28B129462046BDE83840FEF796BCBC
:106F0C0038BD38B504460D46FEF798FCFF2810D066
:106F1C00062804D84D2323FA00F0C30709D42046D1
:106F2C00FFF7A0FF28B129462046BDE83840FEF700
:106F3C008DBC38BD10B50446FEF780FC031FDBB2D8
:106F4C00012B08D92046FFF78DFF20B12046BDE864
:106F5C001040FEF783BC002010BD0D2810B5044670
:106F6C009CBF0E34A4B22046FFF77CFF50B1032126
:106F7C002046FEF753FC032804D12046BDE8104000
:106F8C00FEF77CBC002010BD38B504460D46FFF75B
:106F9C0069FFF0B104212046FEF740FC042805D11E
:106FAC00A9B22046BDE83840FEF760BC022120465D
:106FBC00FEF734FC02280CD12046FEF73FFC0128DA
:106FCC0001D0042805D129462046BDE83840FEF7FB
:106FDC005DBC38BD38B500232025438014230446FE
:106FEC000380856005610649284600F03AF804499B
:106FFC006060284600F035F8E060204638BD00BFE0
:10700C00607B0D0030B50F4D2978BFF35B8F11F00D
:10701C00010487B013D12846FDF73DF878B101A8DB
:10702C00FFF7D8FF01AA21460748FFF7FDFA2846CB
:10703C00FDF736F8054A0649034800F00BF80248FC
:10704C0007B030BDD8E70320DCE7032080E5032040
:10705C00DD650D000B460146184600F01FB9FDF723
:10706C0016B8FDF712B80000014900F0F9B800BFDE
:10707C007C7B0D007FB500241023CDE9023403681E
:10708C0000949E698DF8044015466B461268B04713
:10709C009DF8043003F00603062B03BF009B2B6006
:1070AC000120204604B070BD0098904214BF01200E
:1070BC000620704710B5034B0360044600F0CDF872
:1070CC00204610BDBC7B0D0010B50446FFF7F2FF47
:1070DC0020460821FFF7C3FF204610BD2DE9F041E3
:1070EC001F46DDE90834DDF818809845064615463C
:1070FC0007D1079900F0B4F818B165710020BDE80C
:10710C00F0813946304600F0ABF80028F6D0012368
:10711C00C4F800802571A371F0E738B515461C46FC
:10712C0000F09EF820B10823E3600623256023714C
:10713C0038BD73B505460C4601921E4600F090F81A
:10714C0050B9032E08D82368019A5B69294620465A
:10715C0002B0BDE87040184702B070BD10B5034BCB
:10716C0003600446FFF7A6FF204610BD1C7C0D00F3
:10717C0010B50446FFF7F2FF20460C21FFF76FFF16
:10718C00204610BDF7B5089F974205460E4614469B
:10719C000AD0A86802680897156A31462246AC46A0
:1071AC0003B0BDE8F04060471946019300F058F871
:1071BC00019B0028EDD0062003B0F0BD2DE9F14F66
:1071CC000D461946DDE90A4BDDE90CA6814617464A
:1071DC00984600F045F890B1002D3460377109DB0A
:1071EC0061198A450CBF06210121B171002001B043
:1071FC00BDE8F08F0235F9D10123B371F6E75445A0
:10720C0006D15946484600F02BF808B17771EDE7E6
:10721C00D9F808000368CDE90CA6CDE90A4BDC6966
:10722C003A4643462946A44601B0BDE8F04F6047B4
:10723C002DE9F04107460C4615461E46FFF76DFF3B
:10724C0048B9B86803689F692A4633462146BC464C
:10725C00BDE8F0416047BDE8F08170470020704701
:10726C00814208B50ED0406803782A2B0CD04968AF
:10727C000B782A2B08BF013100F058F8B0FA80F0D7
:10728C00400908BD0120FCE70020FAE70A22002192
:10729C0000F0ECB80A22002100F0E8B810B5054C5B
:1072AC0013462CB10A4601460220AFF3008010BDF4
:1072BC002046FCE7000000000A44914200F1FF3335
:1072CC0000D1704710B511F8014B03F8014F9142F2
:1072DC00F9D110BD02440346934200D1704703F824
:1072EC00011BF9E738B50D4B1D68AB6B04467BB938
:1072FC001820FEF7E7FC0A4A0A4BA863C0E90023F2
:10730C00094B83600B23838101220023C0E90423F2
:10731C00AB6B00221C615A6138BD00BF1CE5032019
:10732C000E33CDAB34126DE6ECDE050010F8012BFC
:10733C0011F8013B012A28BF9A42F7D0D01A7047A6
:10734C00034613F8012B002AFBD1181A0138704799
:10735C0010B50139034632B111F8014F03F8014B56
:10736C00013A002CF7D11A440021934200D110BDF0
:10737C0003F8011BF9E700002DE9F0473A4E864669
:10738C008C4660461CF8014BA55D15F00805F8D13C
:10739C002D2C33D19CF800404FF0010800F1020C69
:1073AC00002B5CD0102B0CD1302C0AD19CF8000097
:1073BC0000F0DF0058284DD19CF8014010230CF14F
:1073CC00020C08F10047013F0026B7FBF3F93046E9
:1073DC0003FB197AA4F13005092D18D82C46A342C9
:1073EC0024DD751C07D081451DD301D1A2451ADBC4
:1073FC0000FB034001261CF8014BEBE72B2C08BFCC
:10740C009CF80040A84608BF00F1020CC8E7A4F1A4
:10741C004105192D01D8373CE1E7A4F16105192D7F
:10742C0004D8573CDBE74FF0FF36E4E7731C06D17A
:10743C002223CEF80030384642B9BDE8F087B8F1C7
:10744C00000F00D04042002AF7D00EB10CF1FF31F2
:10745C001160F2E73024002BB3D10823B1E7302CB4
:10746C00A4D00A23ADE700BF567C0D0013460A4694
:10747C00014602480068FFF77FBF00BF1CE50320F0
:10748C001D400D0059400D0081400D0085400D0040
:10749C0000000000256900256C6900706172697339
:1074AC0000696E006F75740070776D006477006111
:1074BC007700444953795F3961527351486E79743E
:1074CC00386D74765A5868303972542D7464793723
:1074DC00325200746A50726F78696D6974790074F5
:1074EC006A416D6269656E74006C61622E746865C8
:1074FC0077636C2E636F6D00626C6E6B696E6600E9
:10750C0076657200312E302E3000682D6265617404
:10751C0000343500627566662D696E003130323488
:10752C0000646576005061727469636C6500627505
:10753C00696C64004A756C20313520323032312050
:10754C0031323A35323A353100000000044D515495
:10755C00540400064D51497364700300D9570D0053
:10756C00D9570D00D9570D00D9570D00D9570D001B
:10757C00D9570D00D9570D00D9570D00D9570D000B
:10758C00D9570D00D9570D00D9570D00D9570D00FB
:10759C00D9570D00D9570D00D9570D00D9570D00EB
:1075AC00D9570D00D9570D00D9570D00D9570D00DB
:1075BC00D9570D00D9570D00D9570D00D9570D00CB
:1075CC00D9570D00D9570D00D9570D00D9570D00BB
:1075DC00D9570D00D9570D00D9570D00D9570D00AB
:1075EC00D9570D00D9570D00D9570D00D9570D009B
:1075FC00D9570D00D9570D00D9570D00D9570D008B
:10760C00D9570D00D9570D00D9570D00D9570D007A
:10761C00D9570D00D9570D00D9570D00D9570D006A
:10762C00D9570D00D9570D00D9570D00D9570D005A
:10763C00D9570D00D9570D00D9570D00D9570D004A
:10764C00D9570D00D9570D00D9570D00D9570D003A
:10765C00D9570D00D9570D00D9570D00D9570D002A
:10766C00D9570D00D9570D00D9570D00D9570D001A
:10767C00D9570D00D9570D00D9570D00D9570D000A
:10768C00D9570D00D9570D00D9570D00D9570D00FA
:10769C00D9570D00D9570D00D9570D00D9570D00EA
:1076AC00D9570D00D9570D00D9570D00D9570D00DA
:1076BC00D9570D00D9570D00D9570D00D9570D00CA
:1076CC00D9570D00D9570D00D9570D00D9570D00BA
:1076DC00D9570D00D9570D00D9570D00D9570D00AA
:1076EC00D9570D00D9570D00D9570D00D9570D009A
:1076FC00D9570D00D9570D00D9570D00D9570D008A
:10770C00D9570D00D9570D00D9570D00D9570D0079
:10771C00D9570D00D9570D00D9570D00D9570D0069
:10772C00D9570D00D9570D00D9570D00D9570D0059
:10773C00D9570D00D9570D00D9570D00D9570D0049
:10774C00D9570D00D9570D00D9570D00D9570D0039
:10775C00D9570D00D9570D00D9570D00DB570D0027
:10776C00AD410D00DB570D00DB570D00DB570D0055
:10777C00DB570D00DB570D00DB570D00DB570D0001
:10778C00DB570D00DB570D00DB570D00DB570D00F1
:10779C00DB570D00DB570D00DB570D00DB570D00E1
:1077AC00DB570D00DB570D00DB570D00DB570D00D1
:1077BC00DB570D00DB570D00DB570D00DB570D00C1
:1077CC00DB570D00DB570D00DB570D00DB570D00B1
:1077DC00DB570D00DB570D00DB570D00DB570D00A1
:1077EC00DB570D00DB570D00DB570D00DB570D0091
:1077FC00DB570D00DB570D00DB570D00DB570D0081
:10780C00DB570D00DB570D00DB570D00DB570D0070
:10781C00DB570D00DB570D00DB570D00DB570D0060
:10782C00DB570D00DB570D00DB570D00DB570D0050
:10783C00DB570D00DB570D00DB570D00DB570D0040
:10784C00DB570D00DB570D00DB570D00DB570D0030
:10785C00DB570D00DB570D00DB570D00DB570D0020
:10786C00DB570D00DB570D00DB570D00DB570D0010
:10787C00DB570D00DB570D00DB570D00DB570D0000
:10788C00DB570D00DB570D00DB570D00DB570D00F0
:10789C00DB570D00DB570D00DB570D00DB570D00E0
:1078AC00DB570D00DB570D00DB570D00DB570D00D0
:1078BC00DB570D00DB570D00DB570D00DB570D00C0
:1078CC00DB570D00DB570D00DB570D00DB570D00B0
:1078DC00DB570D00DB570D00DB570D00DB570D00A0
:1078EC00DB570D00DB570D00DB570D00DB570D0090
:1078FC00DB570D00DB570D00DB570D00DB570D0080
:10790C00DB570D00DB570D00DB570D00DB570D006F
:10791C00DB570D00DB570D00DB570D00DB570D005F
:10792C00DB570D00DB570D00DB570D00DB570D004F
:10793C00DB570D00DB570D00DB570D00DB570D003F
:10794C00DB570D00DB570D00DB570D00DB570D002F
:10795C00DB570D00DB570D00DB570D00000000005E
:10796C00000000008F5D0D00855D0D007B5D0D003E
:10797C00715D0D00655D0D00595D0D00456D0D00CF
:10798C004D6D0D004D5D0D00455D0D003B5D0D0019
:10799C00315D0D007D6D0D00000000000000000049
:1079AC006170700025592D256D2D25645425483A9C
:1079BC00254D3A2553257A0061736374696D650012
:1079CC000000000000000000B1620D00A1620D007B
:1079DC00A3620D000000000000000000D5630D0044
:1079EC003D640D0013640D0011600D0005640D0065
:1079FC00D7630D00E7630D0037640D00F7630D00CE
:107A0C00D1630D000000000000000000E1640D00D7
:107A1C004D650D0025650D0011600D00F5640D0020
:107A2C0011650D0003650D001F650D00E3640D006D
:107A3C00E7640D000000000000000000DD650D0093
:107A4C0027660D00FF650D00DF650D0007660D0054
:107A5C000F660D0017660D001F660D0077697269C1
:107A6C006E670072656376206572726F72203D20BE
:107A7C0025640000000000000000000055670D00A8
:107A8C0079670D00936B0D0087670D0059670D002A
:107A9C00000000000000000005680D0039680D00B2
:107AAC00D3660D00ED660D00296A0D009B680D0074
:107ABC006D680D0017670D0033690D00996B0D0093
:107ACC00CF680D00DD6A0D0019670D004B670D00C6
:107ADC00FF660D008B670D004D680D000000000067
:107AEC0000000000E76C0D00DD6C0D00D36C0D0088
:107AFC00956C0D001B610D00C76C0D00456D0D00E4
:107B0C004D6D0D00BB6C0D00B36C0D00A96C0D0020
:107B1C009F6C0D007D6D0D0000000000000000004A
:107B2C00056D0D000F6D0D00196D0D00236D0D0011
:107B3C002D6D0D00396D0D00456D0D004D6D0D0059
:107B4C00556D0D00616D0D00696D0D00736D0D00AF
:107B5C007D6D0D0000537431395F53705F6D616B37
:107B6C00655F7368617265645F7461670000000033
:107B7C00BC7B0D00617B0D001C7C0D00907B0D000F
:107B8C00407C0D004E31305F5F63787861626976BE
:107B9C003131375F5F636C6173735F747970655FEC
:107BAC00696E666F4500000000000000847B0D00CC
:107BBC00C1700D00D5700D0069720D0069720D0059
:107BCC003F710D0081700D0027710D00E9700D00E3
:107BDC00B5700D001C7C0D00EC7B0D00847B0D0042
:107BEC004E31305F5F637878616269763132305F35
:107BFC005F73695F636C6173735F747970655F69E0
:107C0C006E666F450000000000000000E07B0D0078
:107C1C0069710D007D710D0069720D0069720D00A6
:107C2C003F710D0081700D003D720D00C9710D008A
:107C3C0091710D00BC7B0D00487C0D0053743974A0
:107C4C007970655F696E666F00002020202020200F
:107C5C0020202028282828282020202020202020F0
:107C6C0020202020202020202020881010101010F0
:107C7C001010101010101010101004040404040440
:107C8C000404040410101010101010414141414123
:107C9C004101010101010101010101010101010188
:107CAC000101010101101010101010424242424219
:107CBC004202020202020202020202020202020258
:107CCC00020202020210101010200000000000003E
:107CDC000000000000000000000000000000000098
:107CEC000000000000000000000000000000000088
:107CFC000000000000000000000000000000000078
:107D0C000000000000000000000000000000000067
:107D1C000000000000000000000000000000000057
:107D2C000000000000000000000000000000000047
:107D3C000000000000000000000000000000000037
:107D4C00000000000000000000000000694B0D0066
:107D5C00995D0D00E15D0D00E95F0D0029610D00DD
:107D6C0039610D0061610D00F16C0D005D6E0D004F
:047D7C000000000003
:047D800000000000FF
:107D8400C4790D0020E5032000000000000000007D
:107D940000000000000000000000000000000000DF
:107DA40000000000000000000000000000000000CF
:107DB40000000000000000000000000000000000BF
:107DC40000000000000000000000000000000000AF
:107DD400000000000000000000000000000000009F
:087DE400000000000000000097
:107DEC00FFFFFFFF00000102030405060708090A54
:107DFC000B0C0D0E0F101112131415161718191A4F
:087E0C001B1C1D1E1F20280095
:047E14007856341256
:04000003D000401CCD
:00000001FF
